{
  "_format": "hh-sol-artifact-1",
  "contractName": "Movie",
  "sourceName": "contracts/Movie.sol",
  "abi": [
    {
      "inputs": [
        {
          "internalType": "uint256",
          "name": "totalSupply",
          "type": "uint256"
        },
        {
          "internalType": "string",
          "name": "baseURI",
          "type": "string"
        }
      ],
      "stateMutability": "nonpayable",
      "type": "constructor"
    },
    {
      "anonymous": false,
      "inputs": [
        {
          "indexed": true,
          "internalType": "address",
          "name": "owner",
          "type": "address"
        },
        {
          "indexed": true,
          "internalType": "address",
          "name": "approved",
          "type": "address"
        },
        {
          "indexed": true,
          "internalType": "uint256",
          "name": "tokenId",
          "type": "uint256"
        }
      ],
      "name": "Approval",
      "type": "event"
    },
    {
      "anonymous": false,
      "inputs": [
        {
          "indexed": true,
          "internalType": "address",
          "name": "owner",
          "type": "address"
        },
        {
          "indexed": true,
          "internalType": "address",
          "name": "operator",
          "type": "address"
        },
        {
          "indexed": false,
          "internalType": "bool",
          "name": "approved",
          "type": "bool"
        }
      ],
      "name": "ApprovalForAll",
      "type": "event"
    },
    {
      "anonymous": false,
      "inputs": [
        {
          "indexed": true,
          "internalType": "address",
          "name": "previousOwner",
          "type": "address"
        },
        {
          "indexed": true,
          "internalType": "address",
          "name": "newOwner",
          "type": "address"
        }
      ],
      "name": "OwnershipTransferred",
      "type": "event"
    },
    {
      "anonymous": false,
      "inputs": [
        {
          "indexed": false,
          "internalType": "address",
          "name": "account",
          "type": "address"
        }
      ],
      "name": "Paused",
      "type": "event"
    },
    {
      "anonymous": false,
      "inputs": [
        {
          "indexed": true,
          "internalType": "address",
          "name": "from",
          "type": "address"
        },
        {
          "indexed": true,
          "internalType": "address",
          "name": "to",
          "type": "address"
        },
        {
          "indexed": true,
          "internalType": "uint256",
          "name": "tokenId",
          "type": "uint256"
        }
      ],
      "name": "Transfer",
      "type": "event"
    },
    {
      "anonymous": false,
      "inputs": [
        {
          "indexed": false,
          "internalType": "address",
          "name": "account",
          "type": "address"
        }
      ],
      "name": "Unpaused",
      "type": "event"
    },
    {
      "inputs": [
        {
          "internalType": "address",
          "name": "",
          "type": "address"
        }
      ],
      "name": "_addressToTokenID",
      "outputs": [
        {
          "internalType": "uint128",
          "name": "",
          "type": "uint128"
        }
      ],
      "stateMutability": "view",
      "type": "function"
    },
    {
      "inputs": [],
      "name": "_publicMintPrice",
      "outputs": [
        {
          "internalType": "uint256",
          "name": "",
          "type": "uint256"
        }
      ],
      "stateMutability": "view",
      "type": "function"
    },
    {
      "inputs": [],
      "name": "_totalSupply",
      "outputs": [
        {
          "internalType": "uint256",
          "name": "",
          "type": "uint256"
        }
      ],
      "stateMutability": "view",
      "type": "function"
    },
    {
      "inputs": [],
      "name": "_whiteMintPrice",
      "outputs": [
        {
          "internalType": "uint256",
          "name": "",
          "type": "uint256"
        }
      ],
      "stateMutability": "view",
      "type": "function"
    },
    {
      "inputs": [
        {
          "internalType": "address",
          "name": "",
          "type": "address"
        }
      ],
      "name": "_whitelistMined",
      "outputs": [
        {
          "internalType": "bool",
          "name": "",
          "type": "bool"
        }
      ],
      "stateMutability": "view",
      "type": "function"
    },
    {
      "inputs": [],
      "name": "_whitelistRoot",
      "outputs": [
        {
          "internalType": "bytes32",
          "name": "",
          "type": "bytes32"
        }
      ],
      "stateMutability": "view",
      "type": "function"
    },
    {
      "inputs": [
        {
          "internalType": "address",
          "name": "to",
          "type": "address"
        },
        {
          "internalType": "uint256",
          "name": "tokenId",
          "type": "uint256"
        }
      ],
      "name": "approve",
      "outputs": [],
      "stateMutability": "nonpayable",
      "type": "function"
    },
    {
      "inputs": [
        {
          "internalType": "address",
          "name": "owner",
          "type": "address"
        }
      ],
      "name": "balanceOf",
      "outputs": [
        {
          "internalType": "uint256",
          "name": "",
          "type": "uint256"
        }
      ],
      "stateMutability": "view",
      "type": "function"
    },
    {
      "inputs": [
        {
          "internalType": "uint256",
          "name": "tokenId",
          "type": "uint256"
        }
      ],
      "name": "getApproved",
      "outputs": [
        {
          "internalType": "address",
          "name": "",
          "type": "address"
        }
      ],
      "stateMutability": "view",
      "type": "function"
    },
    {
      "inputs": [
        {
          "internalType": "address",
          "name": "owner",
          "type": "address"
        },
        {
          "internalType": "address",
          "name": "operator",
          "type": "address"
        }
      ],
      "name": "isApprovedForAll",
      "outputs": [
        {
          "internalType": "bool",
          "name": "",
          "type": "bool"
        }
      ],
      "stateMutability": "view",
      "type": "function"
    },
    {
      "inputs": [],
      "name": "name",
      "outputs": [
        {
          "internalType": "string",
          "name": "",
          "type": "string"
        }
      ],
      "stateMutability": "view",
      "type": "function"
    },
    {
      "inputs": [],
      "name": "owner",
      "outputs": [
        {
          "internalType": "address",
          "name": "",
          "type": "address"
        }
      ],
      "stateMutability": "view",
      "type": "function"
    },
    {
      "inputs": [
        {
          "internalType": "uint256",
          "name": "tokenId",
          "type": "uint256"
        }
      ],
      "name": "ownerOf",
      "outputs": [
        {
          "internalType": "address",
          "name": "",
          "type": "address"
        }
      ],
      "stateMutability": "view",
      "type": "function"
    },
    {
      "inputs": [],
      "name": "pause",
      "outputs": [],
      "stateMutability": "nonpayable",
      "type": "function"
    },
    {
      "inputs": [],
      "name": "paused",
      "outputs": [
        {
          "internalType": "bool",
          "name": "",
          "type": "bool"
        }
      ],
      "stateMutability": "view",
      "type": "function"
    },
    {
      "inputs": [],
      "name": "publicMint",
      "outputs": [],
      "stateMutability": "payable",
      "type": "function"
    },
    {
      "inputs": [],
      "name": "renounceOwnership",
      "outputs": [],
      "stateMutability": "nonpayable",
      "type": "function"
    },
    {
      "inputs": [
        {
          "internalType": "address",
          "name": "from",
          "type": "address"
        },
        {
          "internalType": "address",
          "name": "to",
          "type": "address"
        },
        {
          "internalType": "uint256",
          "name": "tokenId",
          "type": "uint256"
        }
      ],
      "name": "safeTransferFrom",
      "outputs": [],
      "stateMutability": "nonpayable",
      "type": "function"
    },
    {
      "inputs": [
        {
          "internalType": "address",
          "name": "from",
          "type": "address"
        },
        {
          "internalType": "address",
          "name": "to",
          "type": "address"
        },
        {
          "internalType": "uint256",
          "name": "tokenId",
          "type": "uint256"
        },
        {
          "internalType": "bytes",
          "name": "data",
          "type": "bytes"
        }
      ],
      "name": "safeTransferFrom",
      "outputs": [],
      "stateMutability": "nonpayable",
      "type": "function"
    },
    {
      "inputs": [
        {
          "internalType": "address",
          "name": "operator",
          "type": "address"
        },
        {
          "internalType": "bool",
          "name": "approved",
          "type": "bool"
        }
      ],
      "name": "setApprovalForAll",
      "outputs": [],
      "stateMutability": "nonpayable",
      "type": "function"
    },
    {
      "inputs": [
        {
          "internalType": "uint256",
          "name": "publibMintPrice",
          "type": "uint256"
        },
        {
          "internalType": "uint256",
          "name": "whiteMintPrice",
          "type": "uint256"
        }
      ],
      "name": "setMintPrice",
      "outputs": [],
      "stateMutability": "nonpayable",
      "type": "function"
    },
    {
      "inputs": [
        {
          "internalType": "uint256",
          "name": "totalSupply",
          "type": "uint256"
        }
      ],
      "name": "setTotalSupply",
      "outputs": [],
      "stateMutability": "nonpayable",
      "type": "function"
    },
    {
      "inputs": [
        {
          "internalType": "bytes32",
          "name": "whitelistRoot",
          "type": "bytes32"
        }
      ],
      "name": "setWhiteList",
      "outputs": [],
      "stateMutability": "nonpayable",
      "type": "function"
    },
    {
      "inputs": [
        {
          "internalType": "bytes4",
          "name": "interfaceId",
          "type": "bytes4"
        }
      ],
      "name": "supportsInterface",
      "outputs": [
        {
          "internalType": "bool",
          "name": "",
          "type": "bool"
        }
      ],
      "stateMutability": "view",
      "type": "function"
    },
    {
      "inputs": [],
      "name": "symbol",
      "outputs": [
        {
          "internalType": "string",
          "name": "",
          "type": "string"
        }
      ],
      "stateMutability": "view",
      "type": "function"
    },
    {
      "inputs": [
        {
          "internalType": "uint256",
          "name": "tokenId",
          "type": "uint256"
        }
      ],
      "name": "tokenURI",
      "outputs": [
        {
          "internalType": "string",
          "name": "",
          "type": "string"
        }
      ],
      "stateMutability": "view",
      "type": "function"
    },
    {
      "inputs": [
        {
          "internalType": "address",
          "name": "from",
          "type": "address"
        },
        {
          "internalType": "address",
          "name": "to",
          "type": "address"
        },
        {
          "internalType": "uint256",
          "name": "tokenId",
          "type": "uint256"
        }
      ],
      "name": "transferFrom",
      "outputs": [],
      "stateMutability": "nonpayable",
      "type": "function"
    },
    {
      "inputs": [
        {
          "internalType": "address",
          "name": "newOwner",
          "type": "address"
        }
      ],
      "name": "transferOwnership",
      "outputs": [],
      "stateMutability": "nonpayable",
      "type": "function"
    },
    {
      "inputs": [],
      "name": "unpause",
      "outputs": [],
      "stateMutability": "nonpayable",
      "type": "function"
    },
    {
      "inputs": [
        {
          "internalType": "bytes32[]",
          "name": "_proof",
          "type": "bytes32[]"
        }
      ],
      "name": "whiteMint",
      "outputs": [],
      "stateMutability": "payable",
      "type": "function"
    },
    {
      "inputs": [
        {
          "internalType": "contract IERC20",
          "name": "_token",
          "type": "address"
        },
        {
          "internalType": "address",
          "name": "_to",
          "type": "address"
        }
      ],
      "name": "withdrawToken",
      "outputs": [],
      "stateMutability": "nonpayable",
      "type": "function"
    }
  ],
  "bytecode": "0x60806040523480156200001157600080fd5b5060405162004317380380620043178339818101604052810190620000379190620004ac565b6040518060400160405280600581526020017f4d6f7669650000000000000000000000000000000000000000000000000000008152506040518060400160405280600381526020017f4d564500000000000000000000000000000000000000000000000000000000008152508160009080519060200190620000bb92919062000224565b508060019080519060200190620000d492919062000224565b5050506000600760006101000a81548160ff02191690831515021790555062000112620001066200015660201b60201c565b6200015e60201b60201c565b81600881905550662386f26fc1000060098190555066038d7ea4c68000600a8190555080600f90805190602001906200014d92919062000224565b50505062000577565b600033905090565b6000600760019054906101000a900473ffffffffffffffffffffffffffffffffffffffff16905081600760016101000a81548173ffffffffffffffffffffffffffffffffffffffff021916908373ffffffffffffffffffffffffffffffffffffffff1602179055508173ffffffffffffffffffffffffffffffffffffffff168173ffffffffffffffffffffffffffffffffffffffff167f8be0079c531659141344cd1fd0a4f28419497f9722a3daafe3b4186f6b6457e060405160405180910390a35050565b828054620002329062000541565b90600052602060002090601f016020900481019282620002565760008555620002a2565b82601f106200027157805160ff1916838001178555620002a2565b82800160010185558215620002a2579182015b82811115620002a157825182559160200191906001019062000284565b5b509050620002b19190620002b5565b5090565b5b80821115620002d0576000816000905550600101620002b6565b5090565b6000604051905090565b600080fd5b600080fd5b6000819050919050565b620002fd81620002e8565b81146200030957600080fd5b50565b6000815190506200031d81620002f2565b92915050565b600080fd5b600080fd5b6000601f19601f8301169050919050565b7f4e487b7100000000000000000000000000000000000000000000000000000000600052604160045260246000fd5b62000378826200032d565b810181811067ffffffffffffffff821117156200039a57620003996200033e565b5b80604052505050565b6000620003af620002d4565b9050620003bd82826200036d565b919050565b600067ffffffffffffffff821115620003e057620003df6200033e565b5b620003eb826200032d565b9050602081019050919050565b60005b8381101562000418578082015181840152602081019050620003fb565b8381111562000428576000848401525b50505050565b6000620004456200043f84620003c2565b620003a3565b90508281526020810184848401111562000464576200046362000328565b5b62000471848285620003f8565b509392505050565b600082601f83011262000491576200049062000323565b5b8151620004a38482602086016200042e565b91505092915050565b60008060408385031215620004c657620004c5620002de565b5b6000620004d6858286016200030c565b925050602083015167ffffffffffffffff811115620004fa57620004f9620002e3565b5b620005088582860162000479565b9150509250929050565b7f4e487b7100000000000000000000000000000000000000000000000000000000600052602260045260246000fd5b600060028204905060018216806200055a57607f821691505b6020821081141562000571576200057062000512565b5b50919050565b613d9080620005876000396000f3fe6080604052600436106101d85760003560e01c80636352211e11610102578063b551e36611610095578063e985e9c511610064578063e985e9c514610656578063f2fde38b14610693578063f452524d146106bc578063f7ea7a3d146106f9576101d8565b8063b551e3661461059a578063b8189952146105c5578063b88d4fde146105f0578063c87b56dd14610619576101d8565b80638456cb59116100d15780638456cb59146105045780638da5cb5b1461051b57806395d89b4114610546578063a22cb46514610571576101d8565b80636352211e1461044a5780636b0815f31461048757806370a08231146104b0578063715018a6146104ed576101d8565b806326092b831161017a5780633f4ba83a116101495780633f4ba83a146103a257806342842e0e146103b95780635c975abb146103e257806361fb0a4b1461040d576101d8565b806326092b83146103195780632eb48656146103235780633aeac4e11461034e5780633eaaf86b14610377576101d8565b8063081812fc116101b6578063081812fc1461026e578063095ea7b3146102ab5780630fc34675146102d457806323b872dd146102f0576101d8565b806301ffc9a7146101dd5780630442bfa81461021a57806306fdde0314610243575b600080fd5b3480156101e957600080fd5b5061020460048036038101906101ff91906126b7565b610722565b60405161021191906126ff565b60405180910390f35b34801561022657600080fd5b50610241600480360381019061023c9190612750565b610804565b005b34801561024f57600080fd5b5061025861081e565b6040516102659190612829565b60405180910390f35b34801561027a57600080fd5b506102956004803603810190610290919061284b565b6108b0565b6040516102a291906128b9565b60405180910390f35b3480156102b757600080fd5b506102d260048036038101906102cd9190612900565b6108f6565b005b6102ee60048036038101906102e99190612abe565b610a0e565b005b3480156102fc57600080fd5b5061031760048036038101906103129190612b07565b610c54565b005b610321610cb4565b005b34801561032f57600080fd5b50610338610d9c565b6040516103459190612b69565b60405180910390f35b34801561035a57600080fd5b5061037560048036038101906103709190612bc2565b610da2565b005b34801561038357600080fd5b5061038c610ec4565b6040516103999190612c11565b60405180910390f35b3480156103ae57600080fd5b506103b7610eca565b005b3480156103c557600080fd5b506103e060048036038101906103db9190612b07565b610edc565b005b3480156103ee57600080fd5b506103f7610efc565b60405161040491906126ff565b60405180910390f35b34801561041957600080fd5b50610434600480360381019061042f9190612c2c565b610f13565b6040516104419190612c84565b60405180910390f35b34801561045657600080fd5b50610471600480360381019061046c919061284b565b610f42565b60405161047e91906128b9565b60405180910390f35b34801561049357600080fd5b506104ae60048036038101906104a99190612c9f565b610ff4565b005b3480156104bc57600080fd5b506104d760048036038101906104d29190612c2c565b611006565b6040516104e49190612c11565b60405180910390f35b3480156104f957600080fd5b506105026110be565b005b34801561051057600080fd5b506105196110d2565b005b34801561052757600080fd5b506105306110e4565b60405161053d91906128b9565b60405180910390f35b34801561055257600080fd5b5061055b61110e565b6040516105689190612829565b60405180910390f35b34801561057d57600080fd5b5061059860048036038101906105939190612cf8565b6111a0565b005b3480156105a657600080fd5b506105af6111b6565b6040516105bc9190612c11565b60405180910390f35b3480156105d157600080fd5b506105da6111bc565b6040516105e79190612c11565b60405180910390f35b3480156105fc57600080fd5b5061061760048036038101906106129190612ded565b6111c2565b005b34801561062557600080fd5b50610640600480360381019061063b919061284b565b611224565b60405161064d9190612829565b60405180910390f35b34801561066257600080fd5b5061067d60048036038101906106789190612e70565b611236565b60405161068a91906126ff565b60405180910390f35b34801561069f57600080fd5b506106ba60048036038101906106b59190612c2c565b6112ca565b005b3480156106c857600080fd5b506106e360048036038101906106de9190612c2c565b61134e565b6040516106f091906126ff565b60405180910390f35b34801561070557600080fd5b50610720600480360381019061071b919061284b565b61136e565b005b60007f80ac58cd000000000000000000000000000000000000000000000000000000007bffffffffffffffffffffffffffffffffffffffffffffffffffffffff1916827bffffffffffffffffffffffffffffffffffffffffffffffffffffffff191614806107ed57507f5b5e139f000000000000000000000000000000000000000000000000000000007bffffffffffffffffffffffffffffffffffffffffffffffffffffffff1916827bffffffffffffffffffffffffffffffffffffffffffffffffffffffff1916145b806107fd57506107fc82611380565b5b9050919050565b61080c6113ea565b8160098190555080600a819055505050565b60606000805461082d90612edf565b80601f016020809104026020016040519081016040528092919081815260200182805461085990612edf565b80156108a65780601f1061087b576101008083540402835291602001916108a6565b820191906000526020600020905b81548152906001019060200180831161088957829003601f168201915b5050505050905090565b60006108bb82611468565b6004600083815260200190815260200160002060009054906101000a900473ffffffffffffffffffffffffffffffffffffffff169050919050565b600061090182610f42565b90508073ffffffffffffffffffffffffffffffffffffffff168373ffffffffffffffffffffffffffffffffffffffff161415610972576040517f08c379a000000000000000000000000000000000000000000000000000000000815260040161096990612f83565b60405180910390fd5b8073ffffffffffffffffffffffffffffffffffffffff166109916114b3565b73ffffffffffffffffffffffffffffffffffffffff1614806109c057506109bf816109ba6114b3565b611236565b5b6109ff576040517f08c379a00000000000000000000000000000000000000000000000000000000081526004016109f690613015565b60405180910390fd5b610a0983836114bb565b505050565b600854610a1b600e611574565b10610a5b576040517f08c379a0000000000000000000000000000000000000000000000000000000008152600401610a5290613081565b60405180910390fd5b600a54341015610aa0576040517f08c379a0000000000000000000000000000000000000000000000000000000008152600401610a97906130ed565b60405180910390fd5b600033604051602001610ab39190613155565b604051602081830303815290604052805190602001209050610ad882600b5483611582565b610b17576040517f08c379a0000000000000000000000000000000000000000000000000000000008152600401610b0e906131bc565b60405180910390fd5b600d60003373ffffffffffffffffffffffffffffffffffffffff1673ffffffffffffffffffffffffffffffffffffffff16815260200190815260200160002060009054906101000a900460ff1615610ba4576040517f08c379a0000000000000000000000000000000000000000000000000000000008152600401610b9b90613228565b60405180910390fd5b6000610bb0600e611574565b9050610bbc600e611599565b610bc633826115af565b610bf781610bd3836115cd565b604051602001610be391906132d0565b60405160208183030381529060405261172e565b6001600d60003373ffffffffffffffffffffffffffffffffffffffff1673ffffffffffffffffffffffffffffffffffffffff16815260200190815260200160002060006101000a81548160ff021916908315150217905550505050565b610c65610c5f6114b3565b826117a2565b610ca4576040517f08c379a0000000000000000000000000000000000000000000000000000000008152600401610c9b90613364565b60405180910390fd5b610caf838383611837565b505050565b600854610cc1600e611574565b10610d01576040517f08c379a0000000000000000000000000000000000000000000000000000000008152600401610cf890613081565b60405180910390fd5b600954341015610d46576040517f08c379a0000000000000000000000000000000000000000000000000000000008152600401610d3d906130ed565b60405180910390fd5b6000610d52600e611574565b9050610d5e600e611599565b610d6833826115af565b610d9981610d75836115cd565b604051602001610d8591906132d0565b60405160208183030381529060405261172e565b50565b600b5481565b610daa6113ea565b8173ffffffffffffffffffffffffffffffffffffffff1663a9059cbb828473ffffffffffffffffffffffffffffffffffffffff166370a08231306040518263ffffffff1660e01b8152600401610e0091906128b9565b60206040518083038186803b158015610e1857600080fd5b505afa158015610e2c573d6000803e3d6000fd5b505050506040513d601f19601f82011682018060405250810190610e509190613399565b6040518363ffffffff1660e01b8152600401610e6d9291906133c6565b602060405180830381600087803b158015610e8757600080fd5b505af1158015610e9b573d6000803e3d6000fd5b505050506040513d601f19601f82011682018060405250810190610ebf9190613404565b505050565b60085481565b610ed26113ea565b610eda611a9e565b565b610ef7838383604051806020016040528060008152506111c2565b505050565b6000600760009054906101000a900460ff16905090565b600c6020528060005260406000206000915054906101000a90046fffffffffffffffffffffffffffffffff1681565b6000806002600084815260200190815260200160002060009054906101000a900473ffffffffffffffffffffffffffffffffffffffff169050600073ffffffffffffffffffffffffffffffffffffffff168173ffffffffffffffffffffffffffffffffffffffff161415610feb576040517f08c379a0000000000000000000000000000000000000000000000000000000008152600401610fe29061347d565b60405180910390fd5b80915050919050565b610ffc6113ea565b80600b8190555050565b60008073ffffffffffffffffffffffffffffffffffffffff168273ffffffffffffffffffffffffffffffffffffffff161415611077576040517f08c379a000000000000000000000000000000000000000000000000000000000815260040161106e9061350f565b60405180910390fd5b600360008373ffffffffffffffffffffffffffffffffffffffff1673ffffffffffffffffffffffffffffffffffffffff168152602001908152602001600020549050919050565b6110c66113ea565b6110d06000611b01565b565b6110da6113ea565b6110e2611bc7565b565b6000600760019054906101000a900473ffffffffffffffffffffffffffffffffffffffff16905090565b60606001805461111d90612edf565b80601f016020809104026020016040519081016040528092919081815260200182805461114990612edf565b80156111965780601f1061116b57610100808354040283529160200191611196565b820191906000526020600020905b81548152906001019060200180831161117957829003601f168201915b5050505050905090565b6111b26111ab6114b3565b8383611c2a565b5050565b60095481565b600a5481565b6111d36111cd6114b3565b836117a2565b611212576040517f08c379a000000000000000000000000000000000000000000000000000000000815260040161120990613364565b60405180910390fd5b61121e84848484611d97565b50505050565b606061122f82611df3565b9050919050565b6000600560008473ffffffffffffffffffffffffffffffffffffffff1673ffffffffffffffffffffffffffffffffffffffff16815260200190815260200160002060008373ffffffffffffffffffffffffffffffffffffffff1673ffffffffffffffffffffffffffffffffffffffff16815260200190815260200160002060009054906101000a900460ff16905092915050565b6112d26113ea565b600073ffffffffffffffffffffffffffffffffffffffff168173ffffffffffffffffffffffffffffffffffffffff161415611342576040517f08c379a0000000000000000000000000000000000000000000000000000000008152600401611339906135a1565b60405180910390fd5b61134b81611b01565b50565b600d6020528060005260406000206000915054906101000a900460ff1681565b6113766113ea565b8060088190555050565b60007f01ffc9a7000000000000000000000000000000000000000000000000000000007bffffffffffffffffffffffffffffffffffffffffffffffffffffffff1916827bffffffffffffffffffffffffffffffffffffffffffffffffffffffff1916149050919050565b6113f26114b3565b73ffffffffffffffffffffffffffffffffffffffff166114106110e4565b73ffffffffffffffffffffffffffffffffffffffff1614611466576040517f08c379a000000000000000000000000000000000000000000000000000000000815260040161145d9061360d565b60405180910390fd5b565b61147181611f06565b6114b0576040517f08c379a00000000000000000000000000000000000000000000000000000000081526004016114a79061347d565b60405180910390fd5b50565b600033905090565b816004600083815260200190815260200160002060006101000a81548173ffffffffffffffffffffffffffffffffffffffff021916908373ffffffffffffffffffffffffffffffffffffffff160217905550808273ffffffffffffffffffffffffffffffffffffffff1661152e83610f42565b73ffffffffffffffffffffffffffffffffffffffff167f8c5be1e5ebec7d5bd14f71427d1e84f3dd0314c0f7b2291e5b200ac8c7c3b92560405160405180910390a45050565b600081600001549050919050565b60008261158f8584611f72565b1490509392505050565b6001816000016000828254019250508190555050565b6115c9828260405180602001604052806000815250611fc8565b5050565b60606000821415611615576040518060400160405280600181526020017f30000000000000000000000000000000000000000000000000000000000000008152509050611729565b600082905060005b600082146116475780806116309061365c565b915050600a8261164091906136d4565b915061161d565b60008167ffffffffffffffff81111561166357611662612945565b5b6040519080825280601f01601f1916602001820160405280156116955781602001600182028036833780820191505090505b5090505b60008514611722576001826116ae9190613705565b9150600a856116bd9190613739565b60306116c9919061376a565b60f81b8183815181106116df576116de6137c0565b5b60200101907effffffffffffffffffffffffffffffffffffffffffffffffffffffffffffff1916908160001a905350600a8561171b91906136d4565b9450611699565b8093505050505b919050565b61173782611f06565b611776576040517f08c379a000000000000000000000000000000000000000000000000000000000815260040161176d90613861565b60405180910390fd5b8060066000848152602001908152602001600020908051906020019061179d9291906125a8565b505050565b6000806117ae83610f42565b90508073ffffffffffffffffffffffffffffffffffffffff168473ffffffffffffffffffffffffffffffffffffffff1614806117f057506117ef8185611236565b5b8061182e57508373ffffffffffffffffffffffffffffffffffffffff16611816846108b0565b73ffffffffffffffffffffffffffffffffffffffff16145b91505092915050565b8273ffffffffffffffffffffffffffffffffffffffff1661185782610f42565b73ffffffffffffffffffffffffffffffffffffffff16146118ad576040517f08c379a00000000000000000000000000000000000000000000000000000000081526004016118a4906138f3565b60405180910390fd5b600073ffffffffffffffffffffffffffffffffffffffff168273ffffffffffffffffffffffffffffffffffffffff16141561191d576040517f08c379a000000000000000000000000000000000000000000000000000000000815260040161191490613985565b60405180910390fd5b611928838383612023565b6119336000826114bb565b6001600360008573ffffffffffffffffffffffffffffffffffffffff1673ffffffffffffffffffffffffffffffffffffffff16815260200190815260200160002060008282546119839190613705565b925050819055506001600360008473ffffffffffffffffffffffffffffffffffffffff1673ffffffffffffffffffffffffffffffffffffffff16815260200190815260200160002060008282546119da919061376a565b92505081905550816002600083815260200190815260200160002060006101000a81548173ffffffffffffffffffffffffffffffffffffffff021916908373ffffffffffffffffffffffffffffffffffffffff160217905550808273ffffffffffffffffffffffffffffffffffffffff168473ffffffffffffffffffffffffffffffffffffffff167fddf252ad1be2c89b69c2b068fc378daa952ba7f163c4a11628f55a4df523b3ef60405160405180910390a4611a9983838361203b565b505050565b611aa6612040565b6000600760006101000a81548160ff0219169083151502179055507f5db9ee0a495bf2e6ff9c91a7834c1ba4fdd244a5e8aa4e537bd38aeae4b073aa611aea6114b3565b604051611af791906128b9565b60405180910390a1565b6000600760019054906101000a900473ffffffffffffffffffffffffffffffffffffffff16905081600760016101000a81548173ffffffffffffffffffffffffffffffffffffffff021916908373ffffffffffffffffffffffffffffffffffffffff1602179055508173ffffffffffffffffffffffffffffffffffffffff168173ffffffffffffffffffffffffffffffffffffffff167f8be0079c531659141344cd1fd0a4f28419497f9722a3daafe3b4186f6b6457e060405160405180910390a35050565b611bcf612089565b6001600760006101000a81548160ff0219169083151502179055507f62e78cea01bee320cd4e420270b5ea74000d11b0c9f74754ebdbfc544b05a258611c136114b3565b604051611c2091906128b9565b60405180910390a1565b8173ffffffffffffffffffffffffffffffffffffffff168373ffffffffffffffffffffffffffffffffffffffff161415611c99576040517f08c379a0000000000000000000000000000000000000000000000000000000008152600401611c90906139f1565b60405180910390fd5b80600560008573ffffffffffffffffffffffffffffffffffffffff1673ffffffffffffffffffffffffffffffffffffffff16815260200190815260200160002060008473ffffffffffffffffffffffffffffffffffffffff1673ffffffffffffffffffffffffffffffffffffffff16815260200190815260200160002060006101000a81548160ff0219169083151502179055508173ffffffffffffffffffffffffffffffffffffffff168373ffffffffffffffffffffffffffffffffffffffff167f17307eab39ab6107e8899845ad3d59bd9653f200f220920489ca2b5937696c3183604051611d8a91906126ff565b60405180910390a3505050565b611da2848484611837565b611dae848484846120d3565b611ded576040517f08c379a0000000000000000000000000000000000000000000000000000000008152600401611de490613a83565b60405180910390fd5b50505050565b6060611dfe82611468565b6000600660008481526020019081526020016000208054611e1e90612edf565b80601f0160208091040260200160405190810160405280929190818152602001828054611e4a90612edf565b8015611e975780601f10611e6c57610100808354040283529160200191611e97565b820191906000526020600020905b815481529060010190602001808311611e7a57829003601f168201915b505050505090506000611ea861226a565b9050600081511415611ebe578192505050611f01565b600082511115611ef3578082604051602001611edb929190613aa3565b60405160208183030381529060405292505050611f01565b611efc846122fc565b925050505b919050565b60008073ffffffffffffffffffffffffffffffffffffffff166002600084815260200190815260200160002060009054906101000a900473ffffffffffffffffffffffffffffffffffffffff1673ffffffffffffffffffffffffffffffffffffffff1614159050919050565b60008082905060005b8451811015611fbd57611fa882868381518110611f9b57611f9a6137c0565b5b6020026020010151612364565b91508080611fb59061365c565b915050611f7b565b508091505092915050565b611fd2838361238f565b611fdf60008484846120d3565b61201e576040517f08c379a000000000000000000000000000000000000000000000000000000000815260040161201590613a83565b60405180910390fd5b505050565b61202b612089565b612036838383612569565b505050565b505050565b612048610efc565b612087576040517f08c379a000000000000000000000000000000000000000000000000000000000815260040161207e90613b13565b60405180910390fd5b565b612091610efc565b156120d1576040517f08c379a00000000000000000000000000000000000000000000000000000000081526004016120c890613b7f565b60405180910390fd5b565b60006120f48473ffffffffffffffffffffffffffffffffffffffff1661256e565b1561225d578373ffffffffffffffffffffffffffffffffffffffff1663150b7a0261211d6114b3565b8786866040518563ffffffff1660e01b815260040161213f9493929190613bf4565b602060405180830381600087803b15801561215957600080fd5b505af192505050801561218a57506040513d601f19601f820116820180604052508101906121879190613c55565b60015b61220d573d80600081146121ba576040519150601f19603f3d011682016040523d82523d6000602084013e6121bf565b606091505b50600081511415612205576040517f08c379a00000000000000000000000000000000000000000000000000000000081526004016121fc90613a83565b60405180910390fd5b805181602001fd5b63150b7a0260e01b7bffffffffffffffffffffffffffffffffffffffffffffffffffffffff1916817bffffffffffffffffffffffffffffffffffffffffffffffffffffffff191614915050612262565b600190505b949350505050565b6060600f805461227990612edf565b80601f01602080910402602001604051908101604052809291908181526020018280546122a590612edf565b80156122f25780601f106122c7576101008083540402835291602001916122f2565b820191906000526020600020905b8154815290600101906020018083116122d557829003601f168201915b5050505050905090565b606061230782611468565b600061231161226a565b90506000815111612331576040518060200160405280600081525061235c565b8061233b846115cd565b60405160200161234c929190613aa3565b6040516020818303038152906040525b915050919050565b600081831061237c576123778284612591565b612387565b6123868383612591565b5b905092915050565b600073ffffffffffffffffffffffffffffffffffffffff168273ffffffffffffffffffffffffffffffffffffffff1614156123ff576040517f08c379a00000000000000000000000000000000000000000000000000000000081526004016123f690613cce565b60405180910390fd5b61240881611f06565b15612448576040517f08c379a000000000000000000000000000000000000000000000000000000000815260040161243f90613d3a565b60405180910390fd5b61245460008383612023565b6001600360008473ffffffffffffffffffffffffffffffffffffffff1673ffffffffffffffffffffffffffffffffffffffff16815260200190815260200160002060008282546124a4919061376a565b92505081905550816002600083815260200190815260200160002060006101000a81548173ffffffffffffffffffffffffffffffffffffffff021916908373ffffffffffffffffffffffffffffffffffffffff160217905550808273ffffffffffffffffffffffffffffffffffffffff16600073ffffffffffffffffffffffffffffffffffffffff167fddf252ad1be2c89b69c2b068fc378daa952ba7f163c4a11628f55a4df523b3ef60405160405180910390a46125656000838361203b565b5050565b505050565b6000808273ffffffffffffffffffffffffffffffffffffffff163b119050919050565b600082600052816020526040600020905092915050565b8280546125b490612edf565b90600052602060002090601f0160209004810192826125d6576000855561261d565b82601f106125ef57805160ff191683800117855561261d565b8280016001018555821561261d579182015b8281111561261c578251825591602001919060010190612601565b5b50905061262a919061262e565b5090565b5b8082111561264757600081600090555060010161262f565b5090565b6000604051905090565b600080fd5b600080fd5b60007fffffffff0000000000000000000000000000000000000000000000000000000082169050919050565b6126948161265f565b811461269f57600080fd5b50565b6000813590506126b18161268b565b92915050565b6000602082840312156126cd576126cc612655565b5b60006126db848285016126a2565b91505092915050565b60008115159050919050565b6126f9816126e4565b82525050565b600060208201905061271460008301846126f0565b92915050565b6000819050919050565b61272d8161271a565b811461273857600080fd5b50565b60008135905061274a81612724565b92915050565b6000806040838503121561276757612766612655565b5b60006127758582860161273b565b92505060206127868582860161273b565b9150509250929050565b600081519050919050565b600082825260208201905092915050565b60005b838110156127ca5780820151818401526020810190506127af565b838111156127d9576000848401525b50505050565b6000601f19601f8301169050919050565b60006127fb82612790565b612805818561279b565b93506128158185602086016127ac565b61281e816127df565b840191505092915050565b6000602082019050818103600083015261284381846127f0565b905092915050565b60006020828403121561286157612860612655565b5b600061286f8482850161273b565b91505092915050565b600073ffffffffffffffffffffffffffffffffffffffff82169050919050565b60006128a382612878565b9050919050565b6128b381612898565b82525050565b60006020820190506128ce60008301846128aa565b92915050565b6128dd81612898565b81146128e857600080fd5b50565b6000813590506128fa816128d4565b92915050565b6000806040838503121561291757612916612655565b5b6000612925858286016128eb565b92505060206129368582860161273b565b9150509250929050565b600080fd5b7f4e487b7100000000000000000000000000000000000000000000000000000000600052604160045260246000fd5b61297d826127df565b810181811067ffffffffffffffff8211171561299c5761299b612945565b5b80604052505050565b60006129af61264b565b90506129bb8282612974565b919050565b600067ffffffffffffffff8211156129db576129da612945565b5b602082029050602081019050919050565b600080fd5b6000819050919050565b612a04816129f1565b8114612a0f57600080fd5b50565b600081359050612a21816129fb565b92915050565b6000612a3a612a35846129c0565b6129a5565b90508083825260208201905060208402830185811115612a5d57612a5c6129ec565b5b835b81811015612a865780612a728882612a12565b845260208401935050602081019050612a5f565b5050509392505050565b600082601f830112612aa557612aa4612940565b5b8135612ab5848260208601612a27565b91505092915050565b600060208284031215612ad457612ad3612655565b5b600082013567ffffffffffffffff811115612af257612af161265a565b5b612afe84828501612a90565b91505092915050565b600080600060608486031215612b2057612b1f612655565b5b6000612b2e868287016128eb565b9350506020612b3f868287016128eb565b9250506040612b508682870161273b565b9150509250925092565b612b63816129f1565b82525050565b6000602082019050612b7e6000830184612b5a565b92915050565b6000612b8f82612898565b9050919050565b612b9f81612b84565b8114612baa57600080fd5b50565b600081359050612bbc81612b96565b92915050565b60008060408385031215612bd957612bd8612655565b5b6000612be785828601612bad565b9250506020612bf8858286016128eb565b9150509250929050565b612c0b8161271a565b82525050565b6000602082019050612c266000830184612c02565b92915050565b600060208284031215612c4257612c41612655565b5b6000612c50848285016128eb565b91505092915050565b60006fffffffffffffffffffffffffffffffff82169050919050565b612c7e81612c59565b82525050565b6000602082019050612c996000830184612c75565b92915050565b600060208284031215612cb557612cb4612655565b5b6000612cc384828501612a12565b91505092915050565b612cd5816126e4565b8114612ce057600080fd5b50565b600081359050612cf281612ccc565b92915050565b60008060408385031215612d0f57612d0e612655565b5b6000612d1d858286016128eb565b9250506020612d2e85828601612ce3565b9150509250929050565b600080fd5b600067ffffffffffffffff821115612d5857612d57612945565b5b612d61826127df565b9050602081019050919050565b82818337600083830152505050565b6000612d90612d8b84612d3d565b6129a5565b905082815260208101848484011115612dac57612dab612d38565b5b612db7848285612d6e565b509392505050565b600082601f830112612dd457612dd3612940565b5b8135612de4848260208601612d7d565b91505092915050565b60008060008060808587031215612e0757612e06612655565b5b6000612e15878288016128eb565b9450506020612e26878288016128eb565b9350506040612e378782880161273b565b925050606085013567ffffffffffffffff811115612e5857612e5761265a565b5b612e6487828801612dbf565b91505092959194509250565b60008060408385031215612e8757612e86612655565b5b6000612e95858286016128eb565b9250506020612ea6858286016128eb565b9150509250929050565b7f4e487b7100000000000000000000000000000000000000000000000000000000600052602260045260246000fd5b60006002820490506001821680612ef757607f821691505b60208210811415612f0b57612f0a612eb0565b5b50919050565b7f4552433732313a20617070726f76616c20746f2063757272656e74206f776e6560008201527f7200000000000000000000000000000000000000000000000000000000000000602082015250565b6000612f6d60218361279b565b9150612f7882612f11565b604082019050919050565b60006020820190508181036000830152612f9c81612f60565b9050919050565b7f4552433732313a20617070726f76652063616c6c6572206973206e6f7420746f60008201527f6b656e206f776e6572206e6f7220617070726f76656420666f7220616c6c0000602082015250565b6000612fff603e8361279b565b915061300a82612fa3565b604082019050919050565b6000602082019050818103600083015261302e81612ff2565b9050919050565b7f726561636820746f74616c20737570706c790000000000000000000000000000600082015250565b600061306b60128361279b565b915061307682613035565b602082019050919050565b6000602082019050818103600083015261309a8161305e565b9050919050565b7f646f6e2774206861766520656e6f75676820746f6b656e000000000000000000600082015250565b60006130d760178361279b565b91506130e2826130a1565b602082019050919050565b60006020820190508181036000830152613106816130ca565b9050919050565b60008160601b9050919050565b60006131258261310d565b9050919050565b60006131378261311a565b9050919050565b61314f61314a82612898565b61312c565b82525050565b6000613161828461313e565b60148201915081905092915050565b7f566572696669636174696f6e206661696c656400000000000000000000000000600082015250565b60006131a660138361279b565b91506131b182613170565b602082019050919050565b600060208201905081810360008301526131d581613199565b9050919050565b7f4164647265737320616c726561647920636c61696d6564210000000000000000600082015250565b600061321260188361279b565b915061321d826131dc565b602082019050919050565b6000602082019050818103600083015261324181613205565b9050919050565b600081905092915050565b600061325e82612790565b6132688185613248565b93506132788185602086016127ac565b80840191505092915050565b7f2e6a736f6e000000000000000000000000000000000000000000000000000000600082015250565b60006132ba600583613248565b91506132c582613284565b600582019050919050565b60006132dc8284613253565b91506132e7826132ad565b915081905092915050565b7f4552433732313a2063616c6c6572206973206e6f7420746f6b656e206f776e6560008201527f72206e6f7220617070726f766564000000000000000000000000000000000000602082015250565b600061334e602e8361279b565b9150613359826132f2565b604082019050919050565b6000602082019050818103600083015261337d81613341565b9050919050565b60008151905061339381612724565b92915050565b6000602082840312156133af576133ae612655565b5b60006133bd84828501613384565b91505092915050565b60006040820190506133db60008301856128aa565b6133e86020830184612c02565b9392505050565b6000815190506133fe81612ccc565b92915050565b60006020828403121561341a57613419612655565b5b6000613428848285016133ef565b91505092915050565b7f4552433732313a20696e76616c696420746f6b656e2049440000000000000000600082015250565b600061346760188361279b565b915061347282613431565b602082019050919050565b600060208201905081810360008301526134968161345a565b9050919050565b7f4552433732313a2061646472657373207a65726f206973206e6f74206120766160008201527f6c6964206f776e65720000000000000000000000000000000000000000000000602082015250565b60006134f960298361279b565b91506135048261349d565b604082019050919050565b60006020820190508181036000830152613528816134ec565b9050919050565b7f4f776e61626c653a206e6577206f776e657220697320746865207a65726f206160008201527f6464726573730000000000000000000000000000000000000000000000000000602082015250565b600061358b60268361279b565b91506135968261352f565b604082019050919050565b600060208201905081810360008301526135ba8161357e565b9050919050565b7f4f776e61626c653a2063616c6c6572206973206e6f7420746865206f776e6572600082015250565b60006135f760208361279b565b9150613602826135c1565b602082019050919050565b60006020820190508181036000830152613626816135ea565b9050919050565b7f4e487b7100000000000000000000000000000000000000000000000000000000600052601160045260246000fd5b60006136678261271a565b91507fffffffffffffffffffffffffffffffffffffffffffffffffffffffffffffffff82141561369a5761369961362d565b5b600182019050919050565b7f4e487b7100000000000000000000000000000000000000000000000000000000600052601260045260246000fd5b60006136df8261271a565b91506136ea8361271a565b9250826136fa576136f96136a5565b5b828204905092915050565b60006137108261271a565b915061371b8361271a565b92508282101561372e5761372d61362d565b5b828203905092915050565b60006137448261271a565b915061374f8361271a565b92508261375f5761375e6136a5565b5b828206905092915050565b60006137758261271a565b91506137808361271a565b9250827fffffffffffffffffffffffffffffffffffffffffffffffffffffffffffffffff038211156137b5576137b461362d565b5b828201905092915050565b7f4e487b7100000000000000000000000000000000000000000000000000000000600052603260045260246000fd5b7f45524337323155524953746f726167653a2055524920736574206f66206e6f6e60008201527f6578697374656e7420746f6b656e000000000000000000000000000000000000602082015250565b600061384b602e8361279b565b9150613856826137ef565b604082019050919050565b6000602082019050818103600083015261387a8161383e565b9050919050565b7f4552433732313a207472616e736665722066726f6d20696e636f72726563742060008201527f6f776e6572000000000000000000000000000000000000000000000000000000602082015250565b60006138dd60258361279b565b91506138e882613881565b604082019050919050565b6000602082019050818103600083015261390c816138d0565b9050919050565b7f4552433732313a207472616e7366657220746f20746865207a65726f2061646460008201527f7265737300000000000000000000000000000000000000000000000000000000602082015250565b600061396f60248361279b565b915061397a82613913565b604082019050919050565b6000602082019050818103600083015261399e81613962565b9050919050565b7f4552433732313a20617070726f766520746f2063616c6c657200000000000000600082015250565b60006139db60198361279b565b91506139e6826139a5565b602082019050919050565b60006020820190508181036000830152613a0a816139ce565b9050919050565b7f4552433732313a207472616e7366657220746f206e6f6e20455243373231526560008201527f63656976657220696d706c656d656e7465720000000000000000000000000000602082015250565b6000613a6d60328361279b565b9150613a7882613a11565b604082019050919050565b60006020820190508181036000830152613a9c81613a60565b9050919050565b6000613aaf8285613253565b9150613abb8284613253565b91508190509392505050565b7f5061757361626c653a206e6f7420706175736564000000000000000000000000600082015250565b6000613afd60148361279b565b9150613b0882613ac7565b602082019050919050565b60006020820190508181036000830152613b2c81613af0565b9050919050565b7f5061757361626c653a2070617573656400000000000000000000000000000000600082015250565b6000613b6960108361279b565b9150613b7482613b33565b602082019050919050565b60006020820190508181036000830152613b9881613b5c565b9050919050565b600081519050919050565b600082825260208201905092915050565b6000613bc682613b9f565b613bd08185613baa565b9350613be08185602086016127ac565b613be9816127df565b840191505092915050565b6000608082019050613c0960008301876128aa565b613c1660208301866128aa565b613c236040830185612c02565b8181036060830152613c358184613bbb565b905095945050505050565b600081519050613c4f8161268b565b92915050565b600060208284031215613c6b57613c6a612655565b5b6000613c7984828501613c40565b91505092915050565b7f4552433732313a206d696e7420746f20746865207a65726f2061646472657373600082015250565b6000613cb860208361279b565b9150613cc382613c82565b602082019050919050565b60006020820190508181036000830152613ce781613cab565b9050919050565b7f4552433732313a20746f6b656e20616c7265616479206d696e74656400000000600082015250565b6000613d24601c8361279b565b9150613d2f82613cee565b602082019050919050565b60006020820190508181036000830152613d5381613d17565b905091905056fea26469706673582212200c0e9b6ac9cf5179492be91180faf7a38132c3bc0a8243b385ef56294235f2cd64736f6c63430008090033",
  "linkReferences": {},
  "deployedLinkReferences": {}
}